{
    "contractName": "MachineStationFactory",
    "abi": [
        {
            "inputs": [
                {
                    "internalType": "address",
                    "name": "admin",
                    "type": "address"
                },
                {
                    "internalType": "address",
                    "name": "stationManager",
                    "type": "address"
                }
            ],
            "stateMutability": "nonpayable",
            "type": "constructor"
        },
        {
            "inputs": [],
            "name": "AccessControlBadConfirmation",
            "type": "error"
        },
        {
            "inputs": [
                {
                    "internalType": "address",
                    "name": "account",
                    "type": "address"
                },
                {
                    "internalType": "bytes32",
                    "name": "neededRole",
                    "type": "bytes32"
                }
            ],
            "name": "AccessControlUnauthorizedAccount",
            "type": "error"
        },
        {
            "inputs": [],
            "name": "ECDSAInvalidSignature",
            "type": "error"
        },
        {
            "inputs": [
                {
                    "internalType": "uint256",
                    "name": "length",
                    "type": "uint256"
                }
            ],
            "name": "ECDSAInvalidSignatureLength",
            "type": "error"
        },
        {
            "inputs": [
                {
                    "internalType": "bytes32",
                    "name": "s",
                    "type": "bytes32"
                }
            ],
            "name": "ECDSAInvalidSignatureS",
            "type": "error"
        },
        {
            "inputs": [],
            "name": "InvalidMachineAddressTargetsDataLength",
            "type": "error"
        },
        {
            "inputs": [
                {
                    "internalType": "bytes32",
                    "name": "messageHash",
                    "type": "bytes32"
                },
                {
                    "internalType": "uint256",
                    "name": "nonce",
                    "type": "uint256"
                }
            ],
            "name": "InvalidOwnerSignature",
            "type": "error"
        },
        {
            "inputs": [],
            "name": "InvalidShortString",
            "type": "error"
        },
        {
            "inputs": [
                {
                    "internalType": "uint256",
                    "name": "nonce",
                    "type": "uint256"
                }
            ],
            "name": "NonceAlreadyUsed",
            "type": "error"
        },
        {
            "inputs": [
                {
                    "internalType": "address",
                    "name": "token",
                    "type": "address"
                }
            ],
            "name": "SafeERC20FailedOperation",
            "type": "error"
        },
        {
            "inputs": [
                {
                    "internalType": "string",
                    "name": "str",
                    "type": "string"
                }
            ],
            "name": "StringTooLong",
            "type": "error"
        },
        {
            "inputs": [
                {
                    "internalType": "address",
                    "name": "target",
                    "type": "address"
                }
            ],
            "name": "TargetCallFailed",
            "type": "error"
        },
        {
            "inputs": [],
            "name": "ZeroAddress",
            "type": "error"
        },
        {
            "anonymous": false,
            "inputs": [],
            "name": "EIP712DomainChanged",
            "type": "event"
        },
        {
            "anonymous": false,
            "inputs": [
                {
                    "indexed": true,
                    "internalType": "address",
                    "name": "deployedAddress",
                    "type": "address"
                }
            ],
            "name": "MachineSmartAccountDeployed",
            "type": "event"
        },
        {
            "anonymous": false,
            "inputs": [
                {
                    "indexed": true,
                    "internalType": "address",
                    "name": "oldMachineStation",
                    "type": "address"
                },
                {
                    "indexed": true,
                    "internalType": "address",
                    "name": "newMachineStation",
                    "type": "address"
                },
                {
                    "indexed": false,
                    "internalType": "uint256",
                    "name": "amount",
                    "type": "uint256"
                },
                {
                    "indexed": false,
                    "internalType": "uint256",
                    "name": "nonce",
                    "type": "uint256"
                }
            ],
            "name": "MachineStationBalanceTransferred",
            "type": "event"
        },
        {
            "anonymous": false,
            "inputs": [],
            "name": "OnFailbackCall",
            "type": "event"
        },
        {
            "anonymous": false,
            "inputs": [],
            "name": "OnReceivedCall",
            "type": "event"
        },
        {
            "anonymous": false,
            "inputs": [
                {
                    "indexed": true,
                    "internalType": "bytes32",
                    "name": "role",
                    "type": "bytes32"
                },
                {
                    "indexed": true,
                    "internalType": "bytes32",
                    "name": "previousAdminRole",
                    "type": "bytes32"
                },
                {
                    "indexed": true,
                    "internalType": "bytes32",
                    "name": "newAdminRole",
                    "type": "bytes32"
                }
            ],
            "name": "RoleAdminChanged",
            "type": "event"
        },
        {
            "anonymous": false,
            "inputs": [
                {
                    "indexed": true,
                    "internalType": "bytes32",
                    "name": "role",
                    "type": "bytes32"
                },
                {
                    "indexed": true,
                    "internalType": "address",
                    "name": "account",
                    "type": "address"
                },
                {
                    "indexed": true,
                    "internalType": "address",
                    "name": "sender",
                    "type": "address"
                }
            ],
            "name": "RoleGranted",
            "type": "event"
        },
        {
            "anonymous": false,
            "inputs": [
                {
                    "indexed": true,
                    "internalType": "bytes32",
                    "name": "role",
                    "type": "bytes32"
                },
                {
                    "indexed": true,
                    "internalType": "address",
                    "name": "account",
                    "type": "address"
                },
                {
                    "indexed": true,
                    "internalType": "address",
                    "name": "sender",
                    "type": "address"
                }
            ],
            "name": "RoleRevoked",
            "type": "event"
        },
        {
            "anonymous": false,
            "inputs": [
                {
                    "indexed": false,
                    "internalType": "uint256",
                    "name": "newStorageDepositFee",
                    "type": "uint256"
                }
            ],
            "name": "StorageDepositFeeChanged",
            "type": "event"
        },
        {
            "anonymous": false,
            "inputs": [
                {
                    "indexed": true,
                    "internalType": "address",
                    "name": "target",
                    "type": "address"
                },
                {
                    "indexed": false,
                    "internalType": "bytes",
                    "name": "data",
                    "type": "bytes"
                },
                {
                    "indexed": false,
                    "internalType": "uint256",
                    "name": "nonce",
                    "type": "uint256"
                },
                {
                    "indexed": true,
                    "internalType": "address",
                    "name": "executor",
                    "type": "address"
                }
            ],
            "name": "TransactionExecuted",
            "type": "event"
        },
        {
            "stateMutability": "payable",
            "type": "fallback"
        },
        {
            "inputs": [],
            "name": "DEFAULT_ADMIN_ROLE",
            "outputs": [
                {
                    "internalType": "bytes32",
                    "name": "",
                    "type": "bytes32"
                }
            ],
            "stateMutability": "view",
            "type": "function"
        },
        {
            "inputs": [],
            "name": "REQUIRED_STORAGE_DEPOSIT_FEE_ROLE",
            "outputs": [
                {
                    "internalType": "bytes32",
                    "name": "",
                    "type": "bytes32"
                }
            ],
            "stateMutability": "view",
            "type": "function"
        },
        {
            "inputs": [],
            "name": "STATION_MANAGER_ROLE",
            "outputs": [
                {
                    "internalType": "bytes32",
                    "name": "",
                    "type": "bytes32"
                }
            ],
            "stateMutability": "view",
            "type": "function"
        },
        {
            "inputs": [
                {
                    "internalType": "uint256",
                    "name": "newStorageDepositFee",
                    "type": "uint256"
                }
            ],
            "name": "changeStorageDepositFee",
            "outputs": [],
            "stateMutability": "nonpayable",
            "type": "function"
        },
        {
            "inputs": [
                {
                    "internalType": "address[]",
                    "name": "addresses",
                    "type": "address[]"
                }
            ],
            "name": "checkStorageDepositFeeAddresses",
            "outputs": [
                {
                    "internalType": "uint256",
                    "name": "count",
                    "type": "uint256"
                }
            ],
            "stateMutability": "view",
            "type": "function"
        },
        {
            "inputs": [
                {
                    "internalType": "address",
                    "name": "machineOwner",
                    "type": "address"
                },
                {
                    "internalType": "uint256",
                    "name": "nonce",
                    "type": "uint256"
                },
                {
                    "internalType": "bytes",
                    "name": "signature",
                    "type": "bytes"
                }
            ],
            "name": "deployMachineSmartAccount",
            "outputs": [
                {
                    "internalType": "address",
                    "name": "",
                    "type": "address"
                }
            ],
            "stateMutability": "nonpayable",
            "type": "function"
        },
        {
            "inputs": [],
            "name": "eip712Domain",
            "outputs": [
                {
                    "internalType": "bytes1",
                    "name": "fields",
                    "type": "bytes1"
                },
                {
                    "internalType": "string",
                    "name": "name",
                    "type": "string"
                },
                {
                    "internalType": "string",
                    "name": "version",
                    "type": "string"
                },
                {
                    "internalType": "uint256",
                    "name": "chainId",
                    "type": "uint256"
                },
                {
                    "internalType": "address",
                    "name": "verifyingContract",
                    "type": "address"
                },
                {
                    "internalType": "bytes32",
                    "name": "salt",
                    "type": "bytes32"
                },
                {
                    "internalType": "uint256[]",
                    "name": "extensions",
                    "type": "uint256[]"
                }
            ],
            "stateMutability": "view",
            "type": "function"
        },
        {
            "inputs": [
                {
                    "internalType": "address[]",
                    "name": "machineAddresses",
                    "type": "address[]"
                },
                {
                    "internalType": "address[]",
                    "name": "targets",
                    "type": "address[]"
                },
                {
                    "internalType": "bytes[]",
                    "name": "data",
                    "type": "bytes[]"
                },
                {
                    "internalType": "uint256",
                    "name": "nonce",
                    "type": "uint256"
                },
                {
                    "internalType": "uint256[]",
                    "name": "machineNonces",
                    "type": "uint256[]"
                },
                {
                    "internalType": "bytes",
                    "name": "signature",
                    "type": "bytes"
                },
                {
                    "internalType": "bytes[]",
                    "name": "machineOwnerSignatures",
                    "type": "bytes[]"
                }
            ],
            "name": "executeMachineBatchTransactions",
            "outputs": [],
            "stateMutability": "nonpayable",
            "type": "function"
        },
        {
            "inputs": [
                {
                    "internalType": "address",
                    "name": "machineAddress",
                    "type": "address"
                },
                {
                    "internalType": "address",
                    "name": "target",
                    "type": "address"
                },
                {
                    "internalType": "bytes",
                    "name": "data",
                    "type": "bytes"
                },
                {
                    "internalType": "uint256",
                    "name": "nonce",
                    "type": "uint256"
                },
                {
                    "internalType": "bytes",
                    "name": "signature",
                    "type": "bytes"
                },
                {
                    "internalType": "bytes",
                    "name": "machineOwnerSignature",
                    "type": "bytes"
                }
            ],
            "name": "executeMachineTransaction",
            "outputs": [],
            "stateMutability": "nonpayable",
            "type": "function"
        },
        {
            "inputs": [
                {
                    "internalType": "address",
                    "name": "machineAddress",
                    "type": "address"
                },
                {
                    "internalType": "address",
                    "name": "recipientAddress",
                    "type": "address"
                },
                {
                    "internalType": "uint256",
                    "name": "nonce",
                    "type": "uint256"
                },
                {
                    "internalType": "bytes",
                    "name": "signature",
                    "type": "bytes"
                },
                {
                    "internalType": "bytes",
                    "name": "machineOwnerSignature",
                    "type": "bytes"
                }
            ],
            "name": "executeMachineTransferBalance",
            "outputs": [],
            "stateMutability": "nonpayable",
            "type": "function"
        },
        {
            "inputs": [
                {
                    "internalType": "address",
                    "name": "target",
                    "type": "address"
                },
                {
                    "internalType": "bytes",
                    "name": "data",
                    "type": "bytes"
                },
                {
                    "internalType": "uint256",
                    "name": "nonce",
                    "type": "uint256"
                },
                {
                    "internalType": "bytes",
                    "name": "signature",
                    "type": "bytes"
                }
            ],
            "name": "executeTransaction",
            "outputs": [],
            "stateMutability": "nonpayable",
            "type": "function"
        },
        {
            "inputs": [],
            "name": "getDomainSeparator",
            "outputs": [
                {
                    "internalType": "bytes32",
                    "name": "",
                    "type": "bytes32"
                }
            ],
            "stateMutability": "view",
            "type": "function"
        },
        {
            "inputs": [
                {
                    "internalType": "bytes32",
                    "name": "role",
                    "type": "bytes32"
                }
            ],
            "name": "getRoleAdmin",
            "outputs": [
                {
                    "internalType": "bytes32",
                    "name": "",
                    "type": "bytes32"
                }
            ],
            "stateMutability": "view",
            "type": "function"
        },
        {
            "inputs": [
                {
                    "internalType": "bytes32",
                    "name": "role",
                    "type": "bytes32"
                },
                {
                    "internalType": "address",
                    "name": "account",
                    "type": "address"
                }
            ],
            "name": "grantRole",
            "outputs": [],
            "stateMutability": "nonpayable",
            "type": "function"
        },
        {
            "inputs": [
                {
                    "internalType": "bytes32",
                    "name": "role",
                    "type": "bytes32"
                },
                {
                    "internalType": "address",
                    "name": "account",
                    "type": "address"
                }
            ],
            "name": "hasRole",
            "outputs": [
                {
                    "internalType": "bool",
                    "name": "",
                    "type": "bool"
                }
            ],
            "stateMutability": "view",
            "type": "function"
        },
        {
            "inputs": [
                {
                    "internalType": "bytes32",
                    "name": "role",
                    "type": "bytes32"
                },
                {
                    "internalType": "address",
                    "name": "callerConfirmation",
                    "type": "address"
                }
            ],
            "name": "renounceRole",
            "outputs": [],
            "stateMutability": "nonpayable",
            "type": "function"
        },
        {
            "inputs": [
                {
                    "internalType": "bytes32",
                    "name": "role",
                    "type": "bytes32"
                },
                {
                    "internalType": "address",
                    "name": "account",
                    "type": "address"
                }
            ],
            "name": "revokeRole",
            "outputs": [],
            "stateMutability": "nonpayable",
            "type": "function"
        },
        {
            "inputs": [
                {
                    "internalType": "bytes4",
                    "name": "interfaceId",
                    "type": "bytes4"
                }
            ],
            "name": "supportsInterface",
            "outputs": [
                {
                    "internalType": "bool",
                    "name": "",
                    "type": "bool"
                }
            ],
            "stateMutability": "view",
            "type": "function"
        },
        {
            "inputs": [
                {
                    "internalType": "address",
                    "name": "newMachineStationAddress",
                    "type": "address"
                },
                {
                    "internalType": "uint256",
                    "name": "nonce",
                    "type": "uint256"
                },
                {
                    "internalType": "bytes",
                    "name": "signature",
                    "type": "bytes"
                }
            ],
            "name": "transferMachineStationBalance",
            "outputs": [],
            "stateMutability": "nonpayable",
            "type": "function"
        },
        {
            "stateMutability": "payable",
            "type": "receive"
        }
    ],
    "bytecode": "61016034610212576001600160401b0390614245601f38829003908101601f1916830190848211848310176101fe578084916040948594855283398101031261021257610057602061005084610231565b9301610231565b9080519161006483610216565b6015835260208301937f4d616368696e6553746174696f6e466163746f72790000000000000000000000855282519561009c87610216565b6001875260208701603160f81b81526100b4866104ee565b966101209788526100c489610685565b96610140978852519020978860e05251902096610100978089524660a05285519060208201927f8b73c3c69bb8fe3d512ecc4cf759cc79239f7b179b0ffacaa9a75d522b39400f84528783015260608201524660808201523060a082015260a0815260c0810192818410908411176101fe578286525190206080523060c052670494654067e100006004556001600160a01b0390828216156101ef57508216156101de579061017561017b92610245565b506102b1565b50610184610350565b5061018d6103da565b50610196610464565b505191613a0993846107bc853960805184611a60015260a05184611b1b015260c05184611a2a015260e05184611aaf01525183611ad50152518261081a015251816108440152f35b825163d92e233d60e01b8152600490fd5b63d92e233d60e01b8152600490fd5b634e487b7160e01b5f52604160045260245ffd5b5f80fd5b604081019081106001600160401b038211176101fe57604052565b51906001600160a01b038216820361021257565b6001600160a01b03165f8181525f80516020614225833981519152602052604090205460ff166102ac575f8181525f8051602061422583398151915260205260408120805460ff191660011790553391905f805160206141c58339815191528180a4600190565b505f90565b6001600160a01b03165f8181527f76035acbb809d443d98cd356304e9c3bdc89a0c0e4be0928184a5c1ef404b06260205260409020547fba272f7c1126fd55bcfa14f28b454a38c350674073ade218b9dfdce40c1d0194919060ff1661034a57815f52600260205260405f20815f5260205260405f20600160ff1982541617905533915f805160206141c58339815191525f80a4600190565b50505f90565b6108005f8190525f805160206142058339815191526020527f0c58bca22d66ba5c758d650d700b9904541c63cffaeafdeb6d4ff64f1afb0fb5545f805160206141e5833981519152919060ff1661034a57815f52600260205260405f20815f5260205260405f20600160ff1982541617905533915f805160206141c58339815191525f80a4600190565b6108025f8190525f805160206142058339815191526020527fcc4802f6554f6237c6ddc2c10a328156edc2184119d1224b614c5d76c9791d82545f805160206141e5833981519152919060ff1661034a57815f52600260205260405f20815f5260205260405f20600160ff1982541617905533915f805160206141c58339815191525f80a4600190565b6108015f8190525f805160206142058339815191526020527f0248981f8cfa57df97379ecef40076fee0699dd8a700920975d65bc82c92d480545f805160206141e5833981519152919060ff1661034a57815f52600260205260405f20815f5260205260405f20600160ff1982541617905533915f805160206141c58339815191525f80a4600190565b8051602090818110156105645750601f825111610526578082519201519080831061051857501790565b825f19910360031b1b161790565b60448260405192839163305a27a960e01b83528160048401528051918291826024860152018484015e5f828201840152601f01601f19168101030190fd5b906001600160401b0382116101fe575f54926001938481811c9116801561067b575b8382101461066757601f8111610634575b5081601f84116001146105d257509282939183925f946105c7575b50501b915f199060031b1c1916175f5560ff90565b015192505f806105b2565b919083601f1981165f8052845f20945f905b8883831061061a5750505010610602575b505050811b015f5560ff90565b01515f1960f88460031b161c191690555f80806105f5565b8587015188559096019594850194879350908101906105e4565b5f805284601f845f20920160051c820191601f860160051c015b82811061065c575050610597565b5f815501859061064e565b634e487b7160e01b5f52602260045260245ffd5b90607f1690610586565b8051602090818110156106af5750601f825111610526578082519201519080831061051857501790565b9192916001600160401b0381116101fe5760019182548381811c911680156107b1575b8282101461066757601f811161077e575b5080601f831160011461071e5750819293945f92610713575b50505f19600383901b1c191690821b17905560ff90565b015190505f806106fc565b90601f19831695845f52825f20925f905b888210610767575050838596971061074f575b505050811b01905560ff90565b01515f1960f88460031b161c191690555f8080610742565b80878596829496860151815501950193019061072f565b835f5283601f835f20920160051c820191601f850160051c015b8281106107a65750506106e3565b5f8155018490610798565b90607f16906106d256fe6080806040526004361015610062575b50361561003c577f3dc49a9ff525948491d546d36f1f8f4a5e8c1061519701a9ea138fe2c3cb1a435f80a1005b7fdd3c646f071b41da826ff81c94dc1b875023e92d79bc1be9595ba9e8f62e41f55f80a1005b5f905f3560e01c90816301ffc9a7146112f35750806306c90d7b1461112c578063248a9ca3146110ff5780632f2ff15d146110c157806336568abe146110795780634159fc1514610bda578063471e60b714610ab6578063490faada14610a7c5780634b590ceb146109ad57806350cd07f61461095f57806371c925c31461092457806384b0196e1461080457806391d14854146107ba578063a132190614610609578063a217fddf146105ed578063d547741f146105ab578063ed00dcb5146103bf578063ed24911d1461039c5763f38459eb0361000f573461039957610149366114f6565b335f9081527fac33ff75c19e70fe83507db0d683fd3465c996598dc972688b7ace676c89077b6020908152604090912054929490939260ff161561037b576001600160a01b0316938415610369578286526003845260ff604087205416610350578261020061020692604051878101907fb754af7fdd46b6fc55b711af63d7b59453c35e3d1908dffba9481079276ce1578252896040820152846060820152606081526101f5816113cd565b51902094369161157b565b83611747565b156103335750808452600382526040808520805460ff19166001179055516370a0823160e01b8152306004820152916108098184602481845afa9384156103285786946102f5575b50815f6040518281019063a9059cbb60e01b82528860248201528760448201526044815261027b816113cd565b519082855af1156102ea575f513d6102e15750803b155b6102c957506040519283528201527fbe575ac7be9393c7e92e96432563d13256bfff696a7260480bebb40dfeecb65c60403092a380f35b60249060405190635274afe760e01b82526004820152fd5b60011415610292565b6040513d5f823e3d90fd5b9093508181813d8311610321575b61030d818361141e565b8101031261031d5751925f61024e565b5f80fd5b503d610303565b6040513d88823e3d90fd5b60449160405191633625d6bb60e01b835260048301526024820152fd5b604051632472ad4160e21b815260048101849052602490fd5b60405163d92e233d60e01b8152600490fd5b60405163e2517d3f60e01b81523360048201525f6024820152604490fd5b80fd5b503461039957806003193601126103995760206103b7611a27565b604051908152f35b5034610399576080366003190112610399576103d9611346565b6001600160401b036024358181116105a7576103f9903690600401611372565b9091604435906064359081116105a357610417903690600401611372565b9390946104226116ac565b6001600160a01b038116948515610369578388526020966003885260ff60408a20541661058a57846102006104aa9261045c368a8961157b565b8b81519101206040518c8101917f9b32e4d070363cb19be3cb3fd56e8ded5ecf343731510315eb777279bf0bb88f83528c60408301526060820152846080820152608081526101f5816113e8565b1561056c57508680918482526003885260408220600160ff1982541617905560405186858237828188810182815203925af13d15610567573d6104ec81611560565b906104fa604051928361141e565b815287873d92013e5b1561054e57906105417fe9200e38f15edd38df305303c1b8a3ddcf792f530857fa4304c56918923688b49392604051936040855260408501916115b1565b948201528033940390a380f35b604051636515b5e360e11b815260048101859052602490fd5b610503565b6044908460405191633625d6bb60e01b835260048301526024820152fd5b604051632472ad4160e21b815260048101869052602490fd5b8580fd5b8380fd5b5034610399576040366003190112610399576105e96004356105cb61135c565b9080845260026020526105e46001604086200154611725565b6119b3565b5080f35b5034610399578060031936011261039957602090604051908152f35b50346103995760a036600319011261039957610623611346565b9061062c61135c565b60443592906001600160401b03906064358281116107b657610652903690600401611372565b9190926084359081116105a35761066d903690600401611372565b9290946106786116ac565b6001600160a01b03908116928315610369571693841561036957878752600360205260ff60408820541661079d57876102006106f89260405160208101907f697034aac2a7a1f33a41731a5606341564e2b5afb05f29ad63707a05365d44108252876040820152896060820152846080820152608081526101f5816113e8565b1561077f57508585968652600360205260408620600160ff19825416179055813b156105a357858094610753604051978896879586946344f22f2160e01b8652600486015260248501526060604485015260648401916115b1565b03925af18015610774576107645750f35b61076d9061139f565b6103995780f35b6040513d84823e3d90fd5b6044908760405191633625d6bb60e01b835260048301526024820152fd5b604051632472ad4160e21b815260048101899052602490fd5b8480fd5b50346103995760403660031901126103995760406107d661135c565b9160043581526002602052209060018060a01b03165f52602052602060ff60405f2054166040519015158152f35b503461039957806003193601126103995761083e7f0000000000000000000000000000000000000000000000000000000000000000611b41565b906108687f0000000000000000000000000000000000000000000000000000000000000000611c62565b906040519060209060208301938385106001600160401b038611176109105792849260206108c688966108b898604052858552604051988998600f60f81b8a5260e0858b015260e08a019061153c565b9088820360408a015261153c565b924660608801523060808801528460a088015286840360c088015251928381520193925b8281106108f957505050500390f35b8351855286955093810193928101926001016108ea565b634e487b7160e01b5f52604160045260245ffd5b503461039957806003193601126103995760206040517fba272f7c1126fd55bcfa14f28b454a38c350674073ade218b9dfdce40c1d01948152f35b5034610399576020366003190112610399577fd5158900c7858e856f60a749e88647e389dfaf04256e139fc6109740bde6a998602060043561099f6116ac565b80600455604051908152a180f35b5034610399576020906020600319360112610399576004356001600160401b038111610a78576109e1903690600401611456565b908092815b8351811015610a6d576001600160a01b03610a018286611643565b51167e3e1d629c42fadb08d65dad7500c211ed988ea4560b14fca6d4aea74d8c3a1184526002835260408420905f52825260ff60405f205416610a47575b6001016109e6565b935f198114610a595760010193610a3f565b634e487b7160e01b83526011600452602483fd5b602085604051908152f35b5080fd5b503461039957806003193601126103995760206040517e3e1d629c42fadb08d65dad7500c211ed988ea4560b14fca6d4aea74d8c3a118152f35b503461039957610ac5366114f6565b610ad39493949291926116ac565b6001600160a01b039485169283156103695782610200610b319260405160208101907fcb883d475dccf01f51b65f8b39268d178457d3fddf68741f0d23b23b9667f0898252886040820152846060820152606081526101f5816113cd565b156103335750825260036020526040808320805460ff191660011790555190611b6180830191906001600160401b03831184841017610bc657918391604093611e738439815230602082015203019082f0918215610bb95760209216807f437b0f498ec98a9c0806db0a647e9a775919e80cdaff191d79b0e1058642d3c96040519380a28152f35b50604051903d90823e3d90fd5b634e487b7160e01b85526041600452602485fd5b50346103995760e0366003190112610399576004356001600160401b038111610a7857610c0b903690600401611456565b906024356001600160401b038111610a7857610c2b903690600401611456565b6044356001600160401b03811161107557610c4a9036906004016114c6565b91608435906001600160401b0382116107b657366023830112156107b657816004013591610c778361143f565b90610c85604051928361141e565b838252602082016024819560051b8301019136831161106157602401905b8282106110655750505060a4356001600160401b038111610f8f57610ccc903690600401611372565b94909760c4356001600160401b03811161106157610cee9036906004016114c6565b959096610cf96116ac565b6001835110610369576001865110610369576064358a52600360205260ff60408b20541661104757825189875182149182159261103c575b505061102a576040516020810190610d5b81610d4d848861160e565b03601f19810183528261141e565b5190206040516020810190610d7481610d4d848c61160e565b51902092610d818b61143f565b610d8e604051918261141e565b8b8152610d9a8c61143f565b601f19013660208301378b8d5b818110610ff95750506040518d8160208101938460208251919201935b818110610fe0575050610de0925003601f19810183528261141e565b519020906040518d816020810193848c519091935b818110610fc7575050610e11925003601f19810183528261141e565b519020906040519460208601937f51b3bb3d1d8e49a1a756fe9ea3e5befbae72e10ed5d35ebbfff71536773944d1855260408701526060860152608085015260643560a085015260c084015260c0835260e08301908382106001600160401b0383111761091057610e9893610e92926040525190209b60643592369161157b565b8b611747565b15610fa6576064358852600360205260408820805460ff19166001179055879493929190855b8151811015610fa257876001600160a01b03610ef381610ede8587611643565b511682610eeb868b611643565b5116906117ea565b80610efe8486611643565b511690610f0b8489611643565b511690610f19848d8861166b565b9190610f31868c610f2a828d611643565b519761166b565b9094833b15610f9e57610f5f8e96928793604051998a9889978896630d88b34560e31b8852600488016115d1565b03925af1908115610f93578891610f7b575b5050600101610ebe565b610f849061139f565b610f8f57868b610f71565b8680fd5b6040513d8a823e3d90fd5b8d80fd5b8680f35b604051633625d6bb60e01b8152600481018a90526064356024820152604490fd5b8451835260209485019486945090920191600101610df5565b8451835260209485019486945090920191600101610dc4565b611010611009826001948c61166b565b369161157b565b602081519101206110218285611643565b52018c90610da7565b60405163305641d560e01b8152600490fd5b14159050895f610d31565b604051632472ad4160e21b81526064356004820152602490fd5b8880fd5b8135815260209182019101610ca3565b8280fd5b50346103995760403660031901126103995761109361135c565b336001600160a01b038216036110af576105e9906004356119b3565b60405163334bd91960e11b8152600490fd5b5034610399576040366003190112610399576105e96004356110e161135c565b9080845260026020526110fa6001604086200154611725565b611935565b50346103995760203660031901126103995760016040602092600435815260028452200154604051908152f35b503461031d5760c036600319011261031d57611146611346565b61114e61135c565b6001600160401b0360443581811161031d5761116e903690600401611372565b91906064359460843583811161031d5761118c903690600401611372565b95909360a43590811161031d576111a7903690600401611372565b9290966111b26116ac565b6001600160a01b03828116969087156103695784168015610369578a5f52600360205260ff60405f2054166112da5761020061124b928c926111f5368d8c61157b565b602081519101206040519060208201927f90e38a06e0fbef4f398e1c2f195324b0a08b93b67ac0ff9ed53bb4ec857d475d84528d6040840152606083015260808201528460a082015260a081526101f5816113b2565b156112bc57508161127291895f52600360205260405f20600160ff198254161790556117ea565b833b1561031d5761129e5f96928793604051998a9889978896630d88b34560e31b8852600488016115d1565b03925af180156102ea576112b0575080f35b6112ba915061139f565b005b6044908960405191633625d6bb60e01b835260048301526024820152fd5b604051632472ad4160e21b8152600481018c9052602490fd5b3461031d57602036600319011261031d576004359063ffffffff60e01b821680920361031d57602091637965db0b60e01b8114908115611335575b5015158152f35b6301ffc9a760e01b1490508361132e565b600435906001600160a01b038216820361031d57565b602435906001600160a01b038216820361031d57565b9181601f8401121561031d578235916001600160401b03831161031d576020838186019501011161031d57565b6001600160401b03811161091057604052565b60c081019081106001600160401b0382111761091057604052565b608081019081106001600160401b0382111761091057604052565b60a081019081106001600160401b0382111761091057604052565b604081019081106001600160401b0382111761091057604052565b90601f801991011681019081106001600160401b0382111761091057604052565b6001600160401b0381116109105760051b60200190565b9080601f8301121561031d5760209082356114708161143f565b9361147e604051958661141e565b81855260208086019260051b82010192831161031d57602001905b8282106114a7575050505090565b81356001600160a01b038116810361031d578152908301908301611499565b9181601f8401121561031d578235916001600160401b03831161031d576020808501948460051b01011161031d57565b606060031982011261031d576004356001600160a01b038116810361031d579160243591604435906001600160401b03821161031d5761153891600401611372565b9091565b805180835260209291819084018484015e5f828201840152601f01601f1916010190565b6001600160401b03811161091057601f01601f191660200190565b92919261158782611560565b91611595604051938461141e565b82948184528183011161031d578281602093845f960137010152565b908060209392818452848401375f828201840152601f01601f1916010190565b9161160b969495936115f89260018060a01b031684526080602085015260808401916115b1565b93604082015260608185039101526115b1565b90565b80516020809201915f5b828110611626575050505090565b83516001600160a01b031685529381019392810192600101611618565b80518210156116575760209160051b010190565b634e487b7160e01b5f52603260045260245ffd5b91908110156116575760051b81013590601e198136030182121561031d5701908135916001600160401b03831161031d57602001823603811361031d579190565b335f9081527f76035acbb809d443d98cd356304e9c3bdc89a0c0e4be0928184a5c1ef404b06260205260409020547fba272f7c1126fd55bcfa14f28b454a38c350674073ade218b9dfdce40c1d01949060ff16156117075750565b6044906040519063e2517d3f60e01b82523360048301526024820152fd5b805f52600260205260405f20335f5260205260ff60405f205416156117075750565b9091805f52600360205260ff60405f2054166117d2575061179691604261178d92611770611a27565b906040519161190160f01b83526002830152602282015220611d33565b90929192611d6d565b6001600160a01b03165f9081527fac33ff75c19e70fe83507db0d683fd3465c996598dc972688b7ace676c89077b602052604090205460ff1690565b60249060405190632472ad4160e21b82526004820152fd5b6001600160a01b039182165f9081527fb0372863f3131c26cb877e6c1d89377aebbe992c7ae29dd20226c8cbcb6a05ba6020908152604091829020549293919290919060ff1661183b575b50505050565b82516370a0823160e01b8152931660048401819052610809938281602481885afa801561192b575f906118f6575b670494654067e10000915011611835575f9083518381019163a9059cbb60e01b83526024820152670de0b6b3a76400006044820152604481526118ab816113cd565b519082865af1156118ed575f513d6118e45750813b155b6118cd578080611835565b602492505190635274afe760e01b82526004820152fd5b600114156118c2565b513d5f823e3d90fd5b508281813d8311611924575b61190c818361141e565b8101031261031d57670494654067e100009051611869565b503d611902565b84513d5f823e3d90fd5b90815f52600260205260405f209060018060a01b031690815f5260205260ff60405f205416155f146119ad57815f52600260205260405f20815f5260205260405f20600160ff1982541617905533917f2f8788117e7eff1d82e926ec794901d17c78024a50270940304540a733656f0d5f80a4600190565b50505f90565b90815f52600260205260405f209060018060a01b031690815f5260205260ff60405f2054165f146119ad57815f52600260205260405f20815f5260205260405f2060ff19815416905533917ff6391f5c32d9c69d2a47ea670b442974b53935d1edc7fd64eb21e047a839171b5f80a4600190565b307f00000000000000000000000000000000000000000000000000000000000000006001600160a01b03161480611b18575b15611a82577f000000000000000000000000000000000000000000000000000000000000000090565b60405160208101907f8b73c3c69bb8fe3d512ecc4cf759cc79239f7b179b0ffacaa9a75d522b39400f82527f000000000000000000000000000000000000000000000000000000000000000060408201527f000000000000000000000000000000000000000000000000000000000000000060608201524660808201523060a082015260a08152611b12816113b2565b51902090565b507f00000000000000000000000000000000000000000000000000000000000000004614611a59565b60ff8114611b7f5760ff811690601f8211611b6d5760405191611b6383611403565b8252602082015290565b604051632cd44ac360e21b8152600490fd5b506040515f8054906001908260011c60018416928315611c58575b6020948583108514611c44578287528694908115611c245750600114611bc9575b505061160b9250038261141e565b5f8080527f290decd9548b62a8d60345a988386fc84ba6bc95484008f6362f93160ef3e56395935091905b818310611c0c57505061160b93508201015f80611bbb565b85548784018501529485019486945091830191611bf4565b91505061160b94925060ff191682840152151560051b8201015f80611bbb565b634e487b7160e01b5f52602260045260245ffd5b90607f1690611b9a565b60ff8114611c845760ff811690601f8211611b6d5760405191611b6383611403565b506040515f60018054918260011c60018416928315611d29575b6020948583108514611c44578287528694908115611c245750600114611ccc57505061160b9250038261141e565b9093915060015f527fb10e2d527612073b26eecdfd717e6a320cf44b4afac2b0732d9fcbe2b7fa0cf6935f915b818310611d1157505061160b93508201015f80611bbb565b85548784018501529485019486945091830191611cf9565b90607f1690611c9e565b8151919060418303611d6357611d5c9250602082015190606060408401519301515f1a90611df0565b9192909190565b50505f9160029190565b6004811015611ddc5780611d7f575050565b60018103611d995760405163f645eedf60e01b8152600490fd5b60028103611dba5760405163fce698f760e01b815260048101839052602490fd5b600314611dc45750565b602490604051906335e2f38360e21b82526004820152fd5b634e487b7160e01b5f52602160045260245ffd5b91907f7fffffffffffffffffffffffffffffff5d576e7357a4501ddfe92f46681b20a08411611e67579160209360809260ff5f9560405194855216868401526040830152606082015282805260015afa156102ea575f516001600160a01b03811615611e5d57905f905f90565b505f906001905f90565b5050505f916003919056fe610160346101fe576001600160401b03611b61601f38829003908101601f1916840190838211858310176101ea57808591604094859485528339810103126101fe57610056602061004f8561021d565b940161021d565b9080519161006383610202565b6013835260208301937f4d616368696e65536d6172744163636f756e7400000000000000000000000000855282519561009b87610202565b6001875260208701603160f81b81526100b38661033c565b966101209788526100c3896104d3565b96610140978852519020978860e05251902096610100978089524660a05285519060208201927f8b73c3c69bb8fe3d512ecc4cf759cc79239f7b179b0ffacaa9a75d522b39400f84528783015260608201524660808201523060a082015260a0815260c0810193818510908511176101ea578386525190206080523060c0526001600160a01b039081169182156101db57508216156101ca57600380546001600160a01b03191690911790556101829061017c81610231565b5061029d565b505191611517938461060a8539608051846110bc015260a05184611187015260c05184611086015260e0518461110b015251836111310152518261020b015251816102340152f35b825163d92e233d60e01b8152600490fd5b63d92e233d60e01b8152600490fd5b634e487b7160e01b5f52604160045260245ffd5b5f80fd5b604081019081106001600160401b038211176101ea57604052565b51906001600160a01b03821682036101fe57565b6001600160a01b03165f8181525f80516020611b41833981519152602052604090205460ff16610298575f8181525f80516020611b4183398151915260205260408120805460ff191660011790553391905f80516020611b218339815191528180a4600190565b505f90565b6001600160a01b03165f8181527f0dfe31f0f6ba2f376d652c4fcbf86cea8151cd1b116a8105a365add2a554ee8160205260409020547f71d98c4c57ac41ab6c267d775dd524f57f99d0415ec2bcc47d70d31c0efd17b1919060ff1661033657815f52600260205260405f20815f5260205260405f20600160ff1982541617905533915f80516020611b218339815191525f80a4600190565b50505f90565b8051602090818110156103b25750601f825111610374578082519201519080831061036657501790565b825f19910360031b1b161790565b60448260405192839163305a27a960e01b83528160048401528051918291826024860152018484015e5f828201840152601f01601f19168101030190fd5b906001600160401b0382116101ea575f54926001938481811c911680156104c9575b838210146104b557601f8111610482575b5081601f841160011461042057509282939183925f94610415575b50501b915f199060031b1c1916175f5560ff90565b015192505f80610400565b919083601f1981165f8052845f20945f905b888383106104685750505010610450575b505050811b015f5560ff90565b01515f1960f88460031b161c191690555f8080610443565b858701518855909601959485019487935090810190610432565b5f805284601f845f20920160051c820191601f860160051c015b8281106104aa5750506103e5565b5f815501859061049c565b634e487b7160e01b5f52602260045260245ffd5b90607f16906103d4565b8051602090818110156104fd5750601f825111610374578082519201519080831061036657501790565b9192916001600160401b0381116101ea5760019182548381811c911680156105ff575b828210146104b557601f81116105cc575b5080601f831160011461056c5750819293945f92610561575b50505f19600383901b1c191690821b17905560ff90565b015190505f8061054a565b90601f19831695845f52825f20925f905b8882106105b5575050838596971061059d575b505050811b01905560ff90565b01515f1960f88460031b161c191690555f8080610590565b80878596829496860151815501950193019061057d565b835f5283601f835f20920160051c820191601f850160051c015b8281106105f4575050610531565b5f81550184906105e6565b90607f169061052056fe6080806040526004361015610012575f80fd5b5f3560e01c90816301ffc9a714610c9457508063248a9ca314610c675780632f2ff15d14610c2a57806336568abe14610be357806344f22f211461095b578063636cbe46146108ff5780636717e41c146108d05780636c459a28146106d75780637b063e8f1461031057806384b0196e146101f65780638da5cb5b146101ce57806391d1485414610185578063a217fddf1461016b578063d547741f1461012c578063ed24911d1461010a5763fb6a9dec146100cc575f80fd5b34610106575f3660031901126101065760206040517f71d98c4c57ac41ab6c267d775dd524f57f99d0415ec2bcc47d70d31c0efd17b18152f35b5f80fd5b34610106575f366003190112610106576020610124611083565b604051908152f35b346101065760403660031901126101065761016960043561014b610ce7565b90805f526002602052610164600160405f200154610f51565b61100f565b005b34610106575f3660031901126101065760206040515f8152f35b346101065760403660031901126101065761019e610ce7565b6004355f52600260205260405f209060018060a01b03165f52602052602060ff60405f2054166040519015158152f35b34610106575f366003190112610106576003546040516001600160a01b039091168152602090f35b34610106575f3660031901126101065761022f7f000000000000000000000000000000000000000000000000000000000000000061126a565b6102587f000000000000000000000000000000000000000000000000000000000000000061138e565b6040516020808201928284106001600160401b038511176102fc579160206102b185946102a397966040525f8452604051978897600f60f81b895260e0858a015260e0890190610e1a565b908782036040890152610e1a565b914660608701523060808701525f60a087015285830360c087015251918281520192915f5b8281106102e557505050500390f35b8351855286955093810193928101926001016102d6565b634e487b7160e01b5f52604160045260245ffd5b34610106576080366003190112610106576004356001600160401b0380821161010657366023830112156101065781600401359161034d83610e03565b9061035b6040519283610d91565b83825260208201906024829560051b8201019036821161010657602401915b8183106106b75750505060243592828411610106573660238501121561010657836004013592808411610106573660248560051b8701011161010657606435908111610106576103ce903690600401610d13565b335f9081527f0dfe31f0f6ba2f376d652c4fcbf86cea8151cd1b116a8105a365add2a554ee8160205260409020549192909160ff1615806106a2575b61068a576044355f52600460205260ff60405f2054166106705761042d85610e03565b61043a6040519182610d91565b85815261044686610e03565b6020820190601f1901368237865f5b8982821061063c57505050604051908160208101918294519290925f5b81811061062357505061048e925003601f198101835282610d91565b5190209060405160208101918287519091905f5b8181106106045750505091816104c961052d9695936105279503601f198101835282610d91565b519020906040519060208201927fb5a77f2236108db8ee3721e29cb2de5c7ac280c84df715e06f3faf11ba2bf72384526040830152606082015260443560808201526080815261051881610d5b565b51902093604435923691610dcd565b83610e3e565b156105e557506044355f52600460205260405f20916001938493600160ff198254161790555f935b61055b57005b825184101561016957849384905f806001600160a01b0361057c8489610ee8565b51168161058d858960248a01610f10565b9190826040519384928337810182815203925af16105a9610eb9565b5060405190828252151560208201527f55fbc4af9054883bbf9a45d08a8bcac93017032109539cfe6bebe9180238cce760403092a20193610555565b60449060405190633b66eae960e21b8252600482015281356024820152fd5b82516001600160a01b03168452602093840193909201916001016104a2565b8451835260209485019486945090920191600101610472565b61064f8260019460246106569401610f10565b3691610dcd565b602081519101206106678286610ee8565b52018790610455565b604051632472ad4160e21b81526044356004820152602490fd5b604051634a0bfec160e01b8152336004820152602490fd5b506003546001600160a01b031633141561040a565b82356001600160a01b03811681036101065781526020928301920161037a565b34610106576080366003190112610106576106f0610cfd565b6001600160401b0360243581811161010657610710903690600401610d13565b604493919335926064359081116101065761072f903690600401610d13565b335f9081527f0dfe31f0f6ba2f376d652c4fcbf86cea8151cd1b116a8105a365add2a554ee81602090815260409091205490969295919060ff1615806108bb575b61068a57815f526004875260ff60405f2054166108a2576107fd82610527610799368888610dcd565b8a8151910120986040518b8101907f1ff1e0e2a8ecfc4e51458a32b21d4053e7cc8220f6b9c2e72223c2169d70df88825260018060a01b038b169b8c60408301526060820152846080820152608081526107f281610d5b565b519020943691610dcd565b156108855750915f809492819482526004885260408220600160ff19825416179055826040519384928337810182815203925af1610839610eb9565b501561086d576040519081527fb8a1f97c3aadecf502b8d6cfb8ef2741544cb95b7dfc786e004f532db2752c2430923392a3005b60249060405190636515b5e360e11b82526004820152fd5b60449160405191633b66eae960e21b835260048301526024820152fd5b604051632472ad4160e21b815260048101839052602490fd5b506003546001600160a01b0316331415610770565b34610106576020366003190112610106576004355f526004602052602060ff60405f2054166040519015158152f35b34610106576060366003190112610106576024356001600160401b0381116101065736602382011215610106576109516109456020923690602481600401359101610dcd565b60443590600435610e3e565b6040519015158152f35b3461010657606036600319011261010657610974610cfd565b602480356044356001600160401b03811161010657610997903690600401610d13565b335f9081527f0dfe31f0f6ba2f376d652c4fcbf86cea8151cd1b116a8105a365add2a554ee816020908152604090912054929590927f71d98c4c57ac41ab6c267d775dd524f57f99d0415ec2bcc47d70d31c0efd17b19060ff1615610bc657506001600160a01b0316948515610bb457835f526004835260ff60405f205416610b9c5783610527610a6592604051868101907f60ae25e845e8a72489f31d7ae79be37e761d197498dd68de7f7c02dfe585a08e82528a6040820152846060820152606081526107f281610d40565b15610b7f5750815f526004815260405f20600160ff19825416179055604051926370a0823160e01b845230600485015261080982858381845afa948515610b45575f95610b50575b50825f6040518281019063a9059cbb60e01b8252898682015288604482015260448152610ad981610d40565b519082855af115610b45575f513d610b3c5750803b155b610b275750506040519283528201527fe4506670db3a18facacc640ffa234ff9a722f01542a25fd235ffa83b394ee71360403092a3005b60405190635274afe760e01b82526004820152fd5b60011415610af0565b6040513d5f823e3d90fd5b9094508281813d8311610b78575b610b688183610d91565b8101031261010657519386610aad565b503d610b5e565b604490838560405192633b66eae960e21b84526004840152820152fd5b50505060405190632472ad4160e21b82526004820152fd5b60405163d92e233d60e01b8152600490fd5b856044916040519163e2517d3f60e01b8352336004840152820152fd5b3461010657604036600319011261010657610bfc610ce7565b336001600160a01b03821603610c18576101699060043561100f565b60405163334bd91960e11b8152600490fd5b3461010657604036600319011261010657610169600435610c49610ce7565b90805f526002602052610c62600160405f200154610f51565b610f91565b34610106576020366003190112610106576004355f5260026020526020600160405f200154604051908152f35b34610106576020366003190112610106576004359063ffffffff60e01b821680920361010657602091637965db0b60e01b8114908115610cd6575b5015158152f35b6301ffc9a760e01b14905083610ccf565b602435906001600160a01b038216820361010657565b600435906001600160a01b038216820361010657565b9181601f84011215610106578235916001600160401b038311610106576020838186019501011161010657565b608081019081106001600160401b038211176102fc57604052565b60a081019081106001600160401b038211176102fc57604052565b604081019081106001600160401b038211176102fc57604052565b90601f801991011681019081106001600160401b038211176102fc57604052565b6001600160401b0381116102fc57601f01601f191660200190565b929192610dd982610db2565b91610de76040519384610d91565b829481845281830111610106578281602093845f960137010152565b6001600160401b0381116102fc5760051b60200190565b805180835260209291819084018484015e5f828201840152601f01601f1916010190565b9091805f52600460205260ff60405f205416610ea15750610e8d916042610e8492610e67611083565b906040519161190160f01b835260028301526022820152206111ad565b909291926111e7565b6003546001600160a01b0391821691161490565b60249060405190632472ad4160e21b82526004820152fd5b3d15610ee3573d90610eca82610db2565b91610ed86040519384610d91565b82523d5f602084013e565b606090565b8051821015610efc5760209160051b010190565b634e487b7160e01b5f52603260045260245ffd5b9190811015610efc5760051b81013590601e19813603018212156101065701908135916001600160401b038311610106576020018236038113610106579190565b805f52600260205260405f20335f5260205260ff60405f20541615610f735750565b6044906040519063e2517d3f60e01b82523360048301526024820152fd5b90815f52600260205260405f209060018060a01b031690815f5260205260ff60405f205416155f1461100957815f52600260205260405f20815f5260205260405f20600160ff1982541617905533917f2f8788117e7eff1d82e926ec794901d17c78024a50270940304540a733656f0d5f80a4600190565b50505f90565b90815f52600260205260405f209060018060a01b031690815f5260205260ff60405f2054165f1461100957815f52600260205260405f20815f5260205260405f2060ff19815416905533917ff6391f5c32d9c69d2a47ea670b442974b53935d1edc7fd64eb21e047a839171b5f80a4600190565b307f00000000000000000000000000000000000000000000000000000000000000006001600160a01b03161480611184575b156110de577f000000000000000000000000000000000000000000000000000000000000000090565b60405160208101907f8b73c3c69bb8fe3d512ecc4cf759cc79239f7b179b0ffacaa9a75d522b39400f82527f000000000000000000000000000000000000000000000000000000000000000060408201527f000000000000000000000000000000000000000000000000000000000000000060608201524660808201523060a082015260a0815260c081018181106001600160401b038211176102fc5760405251902090565b507f000000000000000000000000000000000000000000000000000000000000000046146110b5565b81519190604183036111dd576111d69250602082015190606060408401519301515f1a9061145f565b9192909190565b50505f9160029190565b600481101561125657806111f9575050565b600181036112135760405163f645eedf60e01b8152600490fd5b600281036112345760405163fce698f760e01b815260048101839052602490fd5b60031461123e5750565b602490604051906335e2f38360e21b82526004820152fd5b634e487b7160e01b5f52602160045260245ffd5b60ff81146112a85760ff811690601f8211611296576040519161128c83610d76565b8252602082015290565b604051632cd44ac360e21b8152600490fd5b506040515f8054906001908260011c60018416928315611384575b602094858310851461137057828752869490811561135057506001146112f5575b50506112f292500382610d91565b90565b5f8080527f290decd9548b62a8d60345a988386fc84ba6bc95484008f6362f93160ef3e56395935091905b8183106113385750506112f293508201015f806112e4565b85548784018501529485019486945091830191611320565b9150506112f294925060ff191682840152151560051b8201015f806112e4565b634e487b7160e01b5f52602260045260245ffd5b90607f16906112c3565b60ff81146113b05760ff811690601f8211611296576040519161128c83610d76565b506040515f60018054918260011c60018416928315611455575b602094858310851461137057828752869490811561135057506001146113f85750506112f292500382610d91565b9093915060015f527fb10e2d527612073b26eecdfd717e6a320cf44b4afac2b0732d9fcbe2b7fa0cf6935f915b81831061143d5750506112f293508201015f806112e4565b85548784018501529485019486945091830191611425565b90607f16906113ca565b91907f7fffffffffffffffffffffffffffffff5d576e7357a4501ddfe92f46681b20a084116114d6579160209360809260ff5f9560405194855216868401526040830152606082015282805260015afa15610b45575f516001600160a01b038116156114cc57905f905f90565b505f906001905f90565b5050505f916003919056fea2646970667358221220a90cfcbc13a04c5b5da52e0c39b894aa73a03460b0c7d7bc70f5e79eeed7055564736f6c634300081900332f8788117e7eff1d82e926ec794901d17c78024a50270940304540a733656f0dac33ff75c19e70fe83507db0d683fd3465c996598dc972688b7ace676c89077ba264697066735822122033aecf5c1b705dc3bd18016feb59d784243b71433d5be51fecc0ce60bbd232ce64736f6c634300081900332f8788117e7eff1d82e926ec794901d17c78024a50270940304540a733656f0d003e1d629c42fadb08d65dad7500c211ed988ea4560b14fca6d4aea74d8c3a11b0372863f3131c26cb877e6c1d89377aebbe992c7ae29dd20226c8cbcb6a05baac33ff75c19e70fe83507db0d683fd3465c996598dc972688b7ace676c89077b",
    "sourcePath": "/Users/iredia/source/js/peaq-evm-smart-contracts/src/machine-station/agung/MachineStationFactory.sol",
    "compiler": {
        "name": "solc",
        "version": "0.8.25+commit.b61c2a91"
    },
    "functionHashes": {
        "DEFAULT_ADMIN_ROLE()": "a217fddf",
        "REQUIRED_STORAGE_DEPOSIT_FEE_ROLE()": "490faada",
        "STATION_MANAGER_ROLE()": "71c925c3",
        "changeStorageDepositFee(uint256)": "50cd07f6",
        "checkStorageDepositFeeAddresses(address[])": "4b590ceb",
        "deployMachineSmartAccount(address,uint256,bytes)": "471e60b7",
        "eip712Domain()": "84b0196e",
        "executeMachineBatchTransactions(address[],address[],bytes[],uint256,uint256[],bytes,bytes[])": "4159fc15",
        "executeMachineTransaction(address,address,bytes,uint256,bytes,bytes)": "06c90d7b",
        "executeMachineTransferBalance(address,address,uint256,bytes,bytes)": "a1321906",
        "executeTransaction(address,bytes,uint256,bytes)": "ed00dcb5",
        "getDomainSeparator()": "ed24911d",
        "getRoleAdmin(bytes32)": "248a9ca3",
        "grantRole(bytes32,address)": "2f2ff15d",
        "hasRole(bytes32,address)": "91d14854",
        "renounceRole(bytes32,address)": "36568abe",
        "revokeRole(bytes32,address)": "d547741f",
        "supportsInterface(bytes4)": "01ffc9a7",
        "transferMachineStationBalance(address,uint256,bytes)": "f38459eb"
    },
    "gasEstimates": {
        "creation": {
            "codeDepositCost": "2971400",
            "executionCost": "infinite",
            "totalCost": "infinite"
        },
        "external": {
            "": "1262",
            "DEFAULT_ADMIN_ROLE()": "472",
            "REQUIRED_STORAGE_DEPOSIT_FEE_ROLE()": "315",
            "STATION_MANAGER_ROLE()": "381",
            "changeStorageDepositFee(uint256)": "25707",
            "checkStorageDepositFeeAddresses(address[])": "infinite",
            "deployMachineSmartAccount(address,uint256,bytes)": "infinite",
            "eip712Domain()": "infinite",
            "executeMachineBatchTransactions(address[],address[],bytes[],uint256,uint256[],bytes,bytes[])": "infinite",
            "executeMachineTransaction(address,address,bytes,uint256,bytes,bytes)": "infinite",
            "executeMachineTransferBalance(address,address,uint256,bytes,bytes)": "infinite",
            "executeTransaction(address,bytes,uint256,bytes)": "infinite",
            "getDomainSeparator()": "infinite",
            "getRoleAdmin(bytes32)": "2380",
            "grantRole(bytes32,address)": "33277",
            "hasRole(bytes32,address)": "2758",
            "renounceRole(bytes32,address)": "28885",
            "revokeRole(bytes32,address)": "33532",
            "supportsInterface(bytes4)": "275",
            "transferMachineStationBalance(address,uint256,bytes)": "infinite"
        },
        "internal": {
            "_fundStorageDepositFees(address,address)": "infinite",
            "_hashData(bytes calldata[] calldata)": "infinite",
            "_verifySignature(bytes32,bytes memory,uint256)": "infinite"
        }
    }
}